{
  "_format": "hh-sol-artifact-1",
  "contractName": "Carpool",
  "sourceName": "contracts/Carpool.sol",
  "abi": [
    {
      "anonymous": false,
      "inputs": [
        {
          "indexed": false,
          "internalType": "uint256",
          "name": "rideId",
          "type": "uint256"
        },
        {
          "indexed": false,
          "internalType": "string",
          "name": "destination",
          "type": "string"
        },
        {
          "indexed": false,
          "internalType": "string",
          "name": "source",
          "type": "string"
        },
        {
          "indexed": false,
          "internalType": "uint256",
          "name": "price",
          "type": "uint256"
        },
        {
          "indexed": false,
          "internalType": "uint256",
          "name": "seat",
          "type": "uint256"
        }
      ],
      "name": "AddRide",
      "type": "event"
    },
    {
      "anonymous": false,
      "inputs": [
        {
          "indexed": false,
          "internalType": "uint256",
          "name": "id",
          "type": "uint256"
        },
        {
          "indexed": false,
          "internalType": "string",
          "name": "name",
          "type": "string"
        },
        {
          "indexed": false,
          "internalType": "string",
          "name": "phNo",
          "type": "string"
        },
        {
          "indexed": false,
          "internalType": "uint256",
          "name": "age",
          "type": "uint256"
        }
      ],
      "name": "AddUser",
      "type": "event"
    },
    {
      "anonymous": false,
      "inputs": [
        {
          "indexed": false,
          "internalType": "address",
          "name": "user",
          "type": "address"
        },
        {
          "indexed": false,
          "internalType": "address",
          "name": "owner",
          "type": "address"
        },
        {
          "indexed": false,
          "internalType": "uint256",
          "name": "rideId",
          "type": "uint256"
        }
      ],
      "name": "BookRide",
      "type": "event"
    },
    {
      "inputs": [
        {
          "internalType": "string",
          "name": "name",
          "type": "string"
        },
        {
          "internalType": "string",
          "name": "phNo",
          "type": "string"
        },
        {
          "internalType": "uint256",
          "name": "age",
          "type": "uint256"
        }
      ],
      "name": "addUser",
      "outputs": [],
      "stateMutability": "nonpayable",
      "type": "function"
    },
    {
      "inputs": [
        {
          "internalType": "uint256",
          "name": "rideId",
          "type": "uint256"
        },
        {
          "internalType": "uint256",
          "name": "no_of_seat",
          "type": "uint256"
        }
      ],
      "name": "bookRide",
      "outputs": [],
      "stateMutability": "payable",
      "type": "function"
    },
    {
      "inputs": [
        {
          "internalType": "string",
          "name": "destination",
          "type": "string"
        },
        {
          "internalType": "string",
          "name": "source",
          "type": "string"
        },
        {
          "internalType": "uint256",
          "name": "price",
          "type": "uint256"
        },
        {
          "internalType": "uint256",
          "name": "seat",
          "type": "uint256"
        }
      ],
      "name": "createRide",
      "outputs": [],
      "stateMutability": "nonpayable",
      "type": "function"
    },
    {
      "inputs": [
        {
          "internalType": "uint256",
          "name": "rideId",
          "type": "uint256"
        }
      ],
      "name": "getRideDetails",
      "outputs": [
        {
          "internalType": "string",
          "name": "",
          "type": "string"
        },
        {
          "internalType": "string",
          "name": "",
          "type": "string"
        },
        {
          "internalType": "uint256",
          "name": "",
          "type": "uint256"
        },
        {
          "internalType": "uint256",
          "name": "",
          "type": "uint256"
        }
      ],
      "stateMutability": "view",
      "type": "function"
    },
    {
      "inputs": [
        {
          "internalType": "uint256",
          "name": "",
          "type": "uint256"
        }
      ],
      "name": "rideOwner",
      "outputs": [
        {
          "internalType": "address payable",
          "name": "",
          "type": "address"
        }
      ],
      "stateMutability": "view",
      "type": "function"
    },
    {
      "inputs": [
        {
          "internalType": "uint256",
          "name": "",
          "type": "uint256"
        }
      ],
      "name": "rides",
      "outputs": [
        {
          "internalType": "uint256",
          "name": "rideId",
          "type": "uint256"
        },
        {
          "internalType": "string",
          "name": "destination",
          "type": "string"
        },
        {
          "internalType": "string",
          "name": "source",
          "type": "string"
        },
        {
          "internalType": "uint256",
          "name": "price",
          "type": "uint256"
        },
        {
          "internalType": "uint256",
          "name": "seat",
          "type": "uint256"
        }
      ],
      "stateMutability": "view",
      "type": "function"
    },
    {
      "inputs": [
        {
          "internalType": "address",
          "name": "",
          "type": "address"
        }
      ],
      "name": "userAddress",
      "outputs": [
        {
          "internalType": "uint256",
          "name": "id",
          "type": "uint256"
        },
        {
          "internalType": "string",
          "name": "name",
          "type": "string"
        },
        {
          "internalType": "string",
          "name": "phNo",
          "type": "string"
        },
        {
          "internalType": "uint256",
          "name": "age",
          "type": "uint256"
        }
      ],
      "stateMutability": "view",
      "type": "function"
    },
    {
      "inputs": [
        {
          "internalType": "uint256",
          "name": "",
          "type": "uint256"
        }
      ],
      "name": "users",
      "outputs": [
        {
          "internalType": "uint256",
          "name": "id",
          "type": "uint256"
        },
        {
          "internalType": "string",
          "name": "name",
          "type": "string"
        },
        {
          "internalType": "string",
          "name": "phNo",
          "type": "string"
        },
        {
          "internalType": "uint256",
          "name": "age",
          "type": "uint256"
        }
      ],
      "stateMutability": "view",
      "type": "function"
    }
  ],
  "bytecode": "0x608060405234801561001057600080fd5b50611731806100206000396000f3fe60806040526004361061007b5760003560e01c80635205f1121161004e5780635205f1121461015c57806381c05f921461019d578063964f5937146101da578063f5e6a7fb146102035761007b565b80631d6be93c146100805780632d452ed6146100c0578063360500cc146100dc578063365b98b21461011c575b600080fd5b34801561008c57600080fd5b506100a760048036038101906100a29190610d2d565b61022c565b6040516100b79493929190610df9565b60405180910390f35b6100da60048036038101906100d59190610e4c565b6103ef565b005b3480156100e857600080fd5b5061010360048036038101906100fe9190610eea565b610571565b6040516101139493929190610f17565b60405180910390f35b34801561012857600080fd5b50610143600480360381019061013e9190610d2d565b6106b1565b6040516101539493929190610f17565b60405180910390f35b34801561016857600080fd5b50610183600480360381019061017e9190610d2d565b610801565b604051610194959493929190610f6a565b60405180910390f35b3480156101a957600080fd5b506101c460048036038101906101bf9190610d2d565b610957565b6040516101d19190610fec565b60405180910390f35b3480156101e657600080fd5b5061020160048036038101906101fc919061113c565b61098a565b005b34801561020f57600080fd5b5061022a600480360381019061022591906111c7565b610b92565b005b6060806000806001858154811061024657610245611266565b5b90600052602060002090600502016001016001868154811061026b5761026a611266565b5b9060005260206000209060050201600201600187815481106102905761028f611266565b5b906000526020600020906005020160030154600188815481106102b6576102b5611266565b5b9060005260206000209060050201600401548380546102d4906112c4565b80601f0160208091040260200160405190810160405280929190818152602001828054610300906112c4565b801561034d5780601f106103225761010080835404028352916020019161034d565b820191906000526020600020905b81548152906001019060200180831161033057829003601f168201915b50505050509350828054610360906112c4565b80601f016020809104026020016040519081016040528092919081815260200182805461038c906112c4565b80156103d95780601f106103ae576101008083540402835291602001916103d9565b820191906000526020600020905b8154815290600101906020018083116103bc57829003601f168201915b5050505050925093509350935093509193509193565b346001838154811061040457610403611266565b5b906000526020600020906005020160030154826104219190611324565b1461042b57600080fd5b6002600083815260200190815260200160002060009054906101000a900473ffffffffffffffffffffffffffffffffffffffff1673ffffffffffffffffffffffffffffffffffffffff166108fc349081150290604051600060405180830381858888f193505050501580156104a4573d6000803e3d6000fd5b5080600183815481106104ba576104b9611266565b5b9060005260206000209060050201600401546104d69190611366565b600183815481106104ea576104e9611266565b5b9060005260206000209060050201600401819055507f32f9c2f72376e20c01523fc02db0214ad297b9d1672449fb43e8b1c79ab1fa21336002600085815260200190815260200160002060009054906101000a900473ffffffffffffffffffffffffffffffffffffffff168460405161056593929190611408565b60405180910390a15050565b600360205280600052604060002060009150905080600001549080600101805461059a906112c4565b80601f01602080910402602001604051908101604052809291908181526020018280546105c6906112c4565b80156106135780601f106105e857610100808354040283529160200191610613565b820191906000526020600020905b8154815290600101906020018083116105f657829003601f168201915b505050505090806002018054610628906112c4565b80601f0160208091040260200160405190810160405280929190818152602001828054610654906112c4565b80156106a15780601f10610676576101008083540402835291602001916106a1565b820191906000526020600020905b81548152906001019060200180831161068457829003601f168201915b5050505050908060030154905084565b600081815481106106c157600080fd5b90600052602060002090600402016000915090508060000154908060010180546106ea906112c4565b80601f0160208091040260200160405190810160405280929190818152602001828054610716906112c4565b80156107635780601f1061073857610100808354040283529160200191610763565b820191906000526020600020905b81548152906001019060200180831161074657829003601f168201915b505050505090806002018054610778906112c4565b80601f01602080910402602001604051908101604052809291908181526020018280546107a4906112c4565b80156107f15780601f106107c6576101008083540402835291602001916107f1565b820191906000526020600020905b8154815290600101906020018083116107d457829003601f168201915b5050505050908060030154905084565b6001818154811061081157600080fd5b906000526020600020906005020160009150905080600001549080600101805461083a906112c4565b80601f0160208091040260200160405190810160405280929190818152602001828054610866906112c4565b80156108b35780601f10610888576101008083540402835291602001916108b3565b820191906000526020600020905b81548152906001019060200180831161089657829003601f168201915b5050505050908060020180546108c8906112c4565b80601f01602080910402602001604051908101604052809291908181526020018280546108f4906112c4565b80156109415780601f1061091657610100808354040283529160200191610941565b820191906000526020600020905b81548152906001019060200180831161092457829003601f168201915b5050505050908060030154908060040154905085565b60026020528060005260406000206000915054906101000a900473ffffffffffffffffffffffffffffffffffffffff1681565b600080805490509050600060405180608001604052808381526020018681526020018581526020018481525090806001815401808255809150506001900390600052602060002090600402016000909190919091506000820151816000015560208201518160010190816109fe91906115e1565b506040820151816002019081610a1491906115e1565b5060608201518160030155505080600360003373ffffffffffffffffffffffffffffffffffffffff1673ffffffffffffffffffffffffffffffffffffffff1681526020019081526020016000206000018190555083600360003373ffffffffffffffffffffffffffffffffffffffff1673ffffffffffffffffffffffffffffffffffffffff1681526020019081526020016000206001019081610ab791906115e1565b5082600360003373ffffffffffffffffffffffffffffffffffffffff1673ffffffffffffffffffffffffffffffffffffffff1681526020019081526020016000206002019081610b0791906115e1565b5081600360003373ffffffffffffffffffffffffffffffffffffffff1673ffffffffffffffffffffffffffffffffffffffff168152602001908152602001600020600301819055507f4e03ce26adbb110cf08bb2e94b279c39630c888d48edb316ecf15320b8899ad481858585604051610b849493929190610f17565b60405180910390a150505050565b600060046000815480929190610ba7906116b3565b91905055905060016040518060a00160405280838152602001878152602001868152602001858152602001848152509080600181540180825580915050600190039060005260206000209060050201600090919091909150600082015181600001556020820151816001019081610c1e91906115e1565b506040820151816002019081610c3491906115e1565b5060608201518160030155608082015181600401555050336002600083815260200190815260200160002060006101000a81548173ffffffffffffffffffffffffffffffffffffffff021916908373ffffffffffffffffffffffffffffffffffffffff1602179055507f934a8d06f0f490110a1329056cb1242b1f89c5eab32d8971aa846d56136b56798186868686604051610cd4959493929190610f6a565b60405180910390a15050505050565b6000604051905090565b600080fd5b600080fd5b6000819050919050565b610d0a81610cf7565b8114610d1557600080fd5b50565b600081359050610d2781610d01565b92915050565b600060208284031215610d4357610d42610ced565b5b6000610d5184828501610d18565b91505092915050565b600081519050919050565b600082825260208201905092915050565b60005b83811015610d94578082015181840152602081019050610d79565b60008484015250505050565b6000601f19601f8301169050919050565b6000610dbc82610d5a565b610dc68185610d65565b9350610dd6818560208601610d76565b610ddf81610da0565b840191505092915050565b610df381610cf7565b82525050565b60006080820190508181036000830152610e138187610db1565b90508181036020830152610e278186610db1565b9050610e366040830185610dea565b610e436060830184610dea565b95945050505050565b60008060408385031215610e6357610e62610ced565b5b6000610e7185828601610d18565b9250506020610e8285828601610d18565b9150509250929050565b600073ffffffffffffffffffffffffffffffffffffffff82169050919050565b6000610eb782610e8c565b9050919050565b610ec781610eac565b8114610ed257600080fd5b50565b600081359050610ee481610ebe565b92915050565b600060208284031215610f0057610eff610ced565b5b6000610f0e84828501610ed5565b91505092915050565b6000608082019050610f2c6000830187610dea565b8181036020830152610f3e8186610db1565b90508181036040830152610f528185610db1565b9050610f616060830184610dea565b95945050505050565b600060a082019050610f7f6000830188610dea565b8181036020830152610f918187610db1565b90508181036040830152610fa58186610db1565b9050610fb46060830185610dea565b610fc16080830184610dea565b9695505050505050565b6000610fd682610e8c565b9050919050565b610fe681610fcb565b82525050565b60006020820190506110016000830184610fdd565b92915050565b600080fd5b600080fd5b7f4e487b7100000000000000000000000000000000000000000000000000000000600052604160045260246000fd5b61104982610da0565b810181811067ffffffffffffffff8211171561106857611067611011565b5b80604052505050565b600061107b610ce3565b90506110878282611040565b919050565b600067ffffffffffffffff8211156110a7576110a6611011565b5b6110b082610da0565b9050602081019050919050565b82818337600083830152505050565b60006110df6110da8461108c565b611071565b9050828152602081018484840111156110fb576110fa61100c565b5b6111068482856110bd565b509392505050565b600082601f83011261112357611122611007565b5b81356111338482602086016110cc565b91505092915050565b60008060006060848603121561115557611154610ced565b5b600084013567ffffffffffffffff81111561117357611172610cf2565b5b61117f8682870161110e565b935050602084013567ffffffffffffffff8111156111a05761119f610cf2565b5b6111ac8682870161110e565b92505060406111bd86828701610d18565b9150509250925092565b600080600080608085870312156111e1576111e0610ced565b5b600085013567ffffffffffffffff8111156111ff576111fe610cf2565b5b61120b8782880161110e565b945050602085013567ffffffffffffffff81111561122c5761122b610cf2565b5b6112388782880161110e565b935050604061124987828801610d18565b925050606061125a87828801610d18565b91505092959194509250565b7f4e487b7100000000000000000000000000000000000000000000000000000000600052603260045260246000fd5b7f4e487b7100000000000000000000000000000000000000000000000000000000600052602260045260246000fd5b600060028204905060018216806112dc57607f821691505b6020821081036112ef576112ee611295565b5b50919050565b7f4e487b7100000000000000000000000000000000000000000000000000000000600052601160045260246000fd5b600061132f82610cf7565b915061133a83610cf7565b925082820261134881610cf7565b9150828204841483151761135f5761135e6112f5565b5b5092915050565b600061137182610cf7565b915061137c83610cf7565b9250828203905081811115611394576113936112f5565b5b92915050565b6113a381610eac565b82525050565b6000819050919050565b60006113ce6113c96113c484610e8c565b6113a9565b610e8c565b9050919050565b60006113e0826113b3565b9050919050565b60006113f2826113d5565b9050919050565b611402816113e7565b82525050565b600060608201905061141d600083018661139a565b61142a60208301856113f9565b6114376040830184610dea565b949350505050565b60008190508160005260206000209050919050565b60006020601f8301049050919050565b600082821b905092915050565b6000600883026114a17fffffffffffffffffffffffffffffffffffffffffffffffffffffffffffffffff82611464565b6114ab8683611464565b95508019841693508086168417925050509392505050565b60006114de6114d96114d484610cf7565b6113a9565b610cf7565b9050919050565b6000819050919050565b6114f8836114c3565b61150c611504826114e5565b848454611471565b825550505050565b600090565b611521611514565b61152c8184846114ef565b505050565b5b8181101561155057611545600082611519565b600181019050611532565b5050565b601f821115611595576115668161143f565b61156f84611454565b8101602085101561157e578190505b61159261158a85611454565b830182611531565b50505b505050565b600082821c905092915050565b60006115b86000198460080261159a565b1980831691505092915050565b60006115d183836115a7565b9150826002028217905092915050565b6115ea82610d5a565b67ffffffffffffffff81111561160357611602611011565b5b61160d82546112c4565b611618828285611554565b600060209050601f83116001811461164b5760008415611639578287015190505b61164385826115c5565b8655506116ab565b601f1984166116598661143f565b60005b828110156116815784890151825560018201915060208501945060208101905061165c565b8683101561169e578489015161169a601f8916826115a7565b8355505b6001600288020188555050505b505050505050565b60006116be82610cf7565b91507fffffffffffffffffffffffffffffffffffffffffffffffffffffffffffffffff82036116f0576116ef6112f5565b5b60018201905091905056fea2646970667358221220a60df365f518f01942773b3a0d91da08b814107bc51d5fc025b06b93c775348f64736f6c63430008110033",
  "linkReferences": {},
  "deployedLinkReferences": {}
}