{
  "_format": "hh-sol-artifact-1",
  "contractName": "Carpool",
  "sourceName": "contracts/Carpool.sol",
  "abi": [
    {
      "anonymous": false,
      "inputs": [
        {
          "indexed": false,
          "internalType": "uint256",
          "name": "rideId",
          "type": "uint256"
        },
        {
          "indexed": false,
          "internalType": "string",
          "name": "destination",
          "type": "string"
        },
        {
          "indexed": false,
          "internalType": "string",
          "name": "source",
          "type": "string"
        },
        {
          "indexed": false,
          "internalType": "uint256",
          "name": "price",
          "type": "uint256"
        },
        {
          "indexed": false,
          "internalType": "uint256",
          "name": "seat",
          "type": "uint256"
        }
      ],
      "name": "AddRide",
      "type": "event"
    },
    {
      "anonymous": false,
      "inputs": [
        {
          "indexed": false,
          "internalType": "uint256",
          "name": "id",
          "type": "uint256"
        },
        {
          "indexed": false,
          "internalType": "string",
          "name": "name",
          "type": "string"
        },
        {
          "indexed": false,
          "internalType": "string",
          "name": "phNo",
          "type": "string"
        },
        {
          "indexed": false,
          "internalType": "uint256",
          "name": "age",
          "type": "uint256"
        }
      ],
      "name": "AddUser",
      "type": "event"
    },
    {
      "anonymous": false,
      "inputs": [
        {
          "indexed": false,
          "internalType": "address",
          "name": "user",
          "type": "address"
        },
        {
          "indexed": false,
          "internalType": "address",
          "name": "owner",
          "type": "address"
        },
        {
          "indexed": false,
          "internalType": "uint256",
          "name": "rideId",
          "type": "uint256"
        }
      ],
      "name": "BookRide",
      "type": "event"
    },
    {
      "inputs": [
        {
          "internalType": "string",
          "name": "name",
          "type": "string"
        },
        {
          "internalType": "string",
          "name": "phNo",
          "type": "string"
        },
        {
          "internalType": "uint256",
          "name": "age",
          "type": "uint256"
        }
      ],
      "name": "addUser",
      "outputs": [],
      "stateMutability": "nonpayable",
      "type": "function"
    },
    {
      "inputs": [
        {
          "internalType": "uint256",
          "name": "rideId",
          "type": "uint256"
        },
        {
          "internalType": "uint256",
          "name": "no_of_seat",
          "type": "uint256"
        }
      ],
      "name": "bookRide",
      "outputs": [],
      "stateMutability": "payable",
      "type": "function"
    },
    {
      "inputs": [
        {
          "internalType": "string",
          "name": "destination",
          "type": "string"
        },
        {
          "internalType": "string",
          "name": "source",
          "type": "string"
        },
        {
          "internalType": "uint256",
          "name": "price",
          "type": "uint256"
        },
        {
          "internalType": "uint256",
          "name": "seat",
          "type": "uint256"
        }
      ],
      "name": "createRide",
      "outputs": [],
      "stateMutability": "nonpayable",
      "type": "function"
    },
    {
      "inputs": [],
      "name": "getAllRides",
      "outputs": [
        {
          "components": [
            {
              "internalType": "uint256",
              "name": "rideId",
              "type": "uint256"
            },
            {
              "internalType": "string",
              "name": "destination",
              "type": "string"
            },
            {
              "internalType": "string",
              "name": "source",
              "type": "string"
            },
            {
              "internalType": "uint256",
              "name": "price",
              "type": "uint256"
            },
            {
              "internalType": "uint256",
              "name": "seat",
              "type": "uint256"
            }
          ],
          "internalType": "struct Carpool.CreateRide[]",
          "name": "",
          "type": "tuple[]"
        }
      ],
      "stateMutability": "view",
      "type": "function"
    },
    {
      "inputs": [
        {
          "internalType": "uint256",
          "name": "rideId",
          "type": "uint256"
        }
      ],
      "name": "getRideDetails",
      "outputs": [
        {
          "internalType": "string",
          "name": "",
          "type": "string"
        },
        {
          "internalType": "string",
          "name": "",
          "type": "string"
        },
        {
          "internalType": "uint256",
          "name": "",
          "type": "uint256"
        },
        {
          "internalType": "uint256",
          "name": "",
          "type": "uint256"
        }
      ],
      "stateMutability": "view",
      "type": "function"
    },
    {
      "inputs": [
        {
          "internalType": "uint256",
          "name": "",
          "type": "uint256"
        }
      ],
      "name": "rideOwner",
      "outputs": [
        {
          "internalType": "address payable",
          "name": "",
          "type": "address"
        }
      ],
      "stateMutability": "view",
      "type": "function"
    },
    {
      "inputs": [
        {
          "internalType": "uint256",
          "name": "",
          "type": "uint256"
        }
      ],
      "name": "rides",
      "outputs": [
        {
          "internalType": "uint256",
          "name": "rideId",
          "type": "uint256"
        },
        {
          "internalType": "string",
          "name": "destination",
          "type": "string"
        },
        {
          "internalType": "string",
          "name": "source",
          "type": "string"
        },
        {
          "internalType": "uint256",
          "name": "price",
          "type": "uint256"
        },
        {
          "internalType": "uint256",
          "name": "seat",
          "type": "uint256"
        }
      ],
      "stateMutability": "view",
      "type": "function"
    },
    {
      "inputs": [
        {
          "internalType": "address",
          "name": "",
          "type": "address"
        }
      ],
      "name": "userAddress",
      "outputs": [
        {
          "internalType": "uint256",
          "name": "id",
          "type": "uint256"
        },
        {
          "internalType": "string",
          "name": "name",
          "type": "string"
        },
        {
          "internalType": "string",
          "name": "phNo",
          "type": "string"
        },
        {
          "internalType": "uint256",
          "name": "age",
          "type": "uint256"
        }
      ],
      "stateMutability": "view",
      "type": "function"
    },
    {
      "inputs": [
        {
          "internalType": "uint256",
          "name": "",
          "type": "uint256"
        }
      ],
      "name": "users",
      "outputs": [
        {
          "internalType": "uint256",
          "name": "id",
          "type": "uint256"
        },
        {
          "internalType": "string",
          "name": "name",
          "type": "string"
        },
        {
          "internalType": "string",
          "name": "phNo",
          "type": "string"
        },
        {
          "internalType": "uint256",
          "name": "age",
          "type": "uint256"
        }
      ],
      "stateMutability": "view",
      "type": "function"
    }
  ],
  "bytecode": "0x608060405234801561001057600080fd5b50611ac2806100206000396000f3fe6080604052600436106100865760003560e01c80635205f112116100595780635205f11214610167578063787660c3146101a857806381c05f92146101d3578063964f593714610210578063f5e6a7fb1461023957610086565b80631d6be93c1461008b5780632d452ed6146100cb578063360500cc146100e7578063365b98b214610127575b600080fd5b34801561009757600080fd5b506100b260048036038101906100ad9190610f04565b610262565b6040516100c29493929190610fd0565b60405180910390f35b6100e560048036038101906100e09190611023565b610425565b005b3480156100f357600080fd5b5061010e600480360381019061010991906110c1565b6105a7565b60405161011e94939291906110ee565b60405180910390f35b34801561013357600080fd5b5061014e60048036038101906101499190610f04565b6106e7565b60405161015e94939291906110ee565b60405180910390f35b34801561017357600080fd5b5061018e60048036038101906101899190610f04565b610837565b60405161019f959493929190611141565b60405180910390f35b3480156101b457600080fd5b506101bd61098d565b6040516101ca919061133a565b60405180910390f35b3480156101df57600080fd5b506101fa60048036038101906101f59190610f04565b610b2e565b604051610207919061137d565b60405180910390f35b34801561021c57600080fd5b50610237600480360381019061023291906114cd565b610b61565b005b34801561024557600080fd5b50610260600480360381019061025b9190611558565b610d69565b005b6060806000806001858154811061027c5761027b6115f7565b5b9060005260206000209060050201600101600186815481106102a1576102a06115f7565b5b9060005260206000209060050201600201600187815481106102c6576102c56115f7565b5b906000526020600020906005020160030154600188815481106102ec576102eb6115f7565b5b90600052602060002090600502016004015483805461030a90611655565b80601f016020809104026020016040519081016040528092919081815260200182805461033690611655565b80156103835780601f1061035857610100808354040283529160200191610383565b820191906000526020600020905b81548152906001019060200180831161036657829003601f168201915b5050505050935082805461039690611655565b80601f01602080910402602001604051908101604052809291908181526020018280546103c290611655565b801561040f5780601f106103e45761010080835404028352916020019161040f565b820191906000526020600020905b8154815290600101906020018083116103f257829003601f168201915b5050505050925093509350935093509193509193565b346001838154811061043a576104396115f7565b5b9060005260206000209060050201600301548261045791906116b5565b1461046157600080fd5b6002600083815260200190815260200160002060009054906101000a900473ffffffffffffffffffffffffffffffffffffffff1673ffffffffffffffffffffffffffffffffffffffff166108fc349081150290604051600060405180830381858888f193505050501580156104da573d6000803e3d6000fd5b5080600183815481106104f0576104ef6115f7565b5b90600052602060002090600502016004015461050c91906116f7565b600183815481106105205761051f6115f7565b5b9060005260206000209060050201600401819055507f32f9c2f72376e20c01523fc02db0214ad297b9d1672449fb43e8b1c79ab1fa21336002600085815260200190815260200160002060009054906101000a900473ffffffffffffffffffffffffffffffffffffffff168460405161059b93929190611799565b60405180910390a15050565b60036020528060005260406000206000915090508060000154908060010180546105d090611655565b80601f01602080910402602001604051908101604052809291908181526020018280546105fc90611655565b80156106495780601f1061061e57610100808354040283529160200191610649565b820191906000526020600020905b81548152906001019060200180831161062c57829003601f168201915b50505050509080600201805461065e90611655565b80601f016020809104026020016040519081016040528092919081815260200182805461068a90611655565b80156106d75780601f106106ac576101008083540402835291602001916106d7565b820191906000526020600020905b8154815290600101906020018083116106ba57829003601f168201915b5050505050908060030154905084565b600081815481106106f757600080fd5b906000526020600020906004020160009150905080600001549080600101805461072090611655565b80601f016020809104026020016040519081016040528092919081815260200182805461074c90611655565b80156107995780601f1061076e57610100808354040283529160200191610799565b820191906000526020600020905b81548152906001019060200180831161077c57829003601f168201915b5050505050908060020180546107ae90611655565b80601f01602080910402602001604051908101604052809291908181526020018280546107da90611655565b80156108275780601f106107fc57610100808354040283529160200191610827565b820191906000526020600020905b81548152906001019060200180831161080a57829003601f168201915b5050505050908060030154905084565b6001818154811061084757600080fd5b906000526020600020906005020160009150905080600001549080600101805461087090611655565b80601f016020809104026020016040519081016040528092919081815260200182805461089c90611655565b80156108e95780601f106108be576101008083540402835291602001916108e9565b820191906000526020600020905b8154815290600101906020018083116108cc57829003601f168201915b5050505050908060020180546108fe90611655565b80601f016020809104026020016040519081016040528092919081815260200182805461092a90611655565b80156109775780601f1061094c57610100808354040283529160200191610977565b820191906000526020600020905b81548152906001019060200180831161095a57829003601f168201915b5050505050908060030154908060040154905085565b60606001805480602002602001604051908101604052809291908181526020016000905b82821015610b2557838290600052602060002090600502016040518060a0016040529081600082015481526020016001820180546109ee90611655565b80601f0160208091040260200160405190810160405280929190818152602001828054610a1a90611655565b8015610a675780601f10610a3c57610100808354040283529160200191610a67565b820191906000526020600020905b815481529060010190602001808311610a4a57829003601f168201915b50505050508152602001600282018054610a8090611655565b80601f0160208091040260200160405190810160405280929190818152602001828054610aac90611655565b8015610af95780601f10610ace57610100808354040283529160200191610af9565b820191906000526020600020905b815481529060010190602001808311610adc57829003601f168201915b5050505050815260200160038201548152602001600482015481525050815260200190600101906109b1565b50505050905090565b60026020528060005260406000206000915054906101000a900473ffffffffffffffffffffffffffffffffffffffff1681565b60008080549050905060006040518060800160405280838152602001868152602001858152602001848152509080600181540180825580915050600190039060005260206000209060040201600090919091909150600082015181600001556020820151816001019081610bd59190611972565b506040820151816002019081610beb9190611972565b5060608201518160030155505080600360003373ffffffffffffffffffffffffffffffffffffffff1673ffffffffffffffffffffffffffffffffffffffff1681526020019081526020016000206000018190555083600360003373ffffffffffffffffffffffffffffffffffffffff1673ffffffffffffffffffffffffffffffffffffffff1681526020019081526020016000206001019081610c8e9190611972565b5082600360003373ffffffffffffffffffffffffffffffffffffffff1673ffffffffffffffffffffffffffffffffffffffff1681526020019081526020016000206002019081610cde9190611972565b5081600360003373ffffffffffffffffffffffffffffffffffffffff1673ffffffffffffffffffffffffffffffffffffffff168152602001908152602001600020600301819055507f4e03ce26adbb110cf08bb2e94b279c39630c888d48edb316ecf15320b8899ad481858585604051610d5b94939291906110ee565b60405180910390a150505050565b600060046000815480929190610d7e90611a44565b91905055905060016040518060a00160405280838152602001878152602001868152602001858152602001848152509080600181540180825580915050600190039060005260206000209060050201600090919091909150600082015181600001556020820151816001019081610df59190611972565b506040820151816002019081610e0b9190611972565b5060608201518160030155608082015181600401555050336002600083815260200190815260200160002060006101000a81548173ffffffffffffffffffffffffffffffffffffffff021916908373ffffffffffffffffffffffffffffffffffffffff1602179055507f934a8d06f0f490110a1329056cb1242b1f89c5eab32d8971aa846d56136b56798186868686604051610eab959493929190611141565b60405180910390a15050505050565b6000604051905090565b600080fd5b600080fd5b6000819050919050565b610ee181610ece565b8114610eec57600080fd5b50565b600081359050610efe81610ed8565b92915050565b600060208284031215610f1a57610f19610ec4565b5b6000610f2884828501610eef565b91505092915050565b600081519050919050565b600082825260208201905092915050565b60005b83811015610f6b578082015181840152602081019050610f50565b60008484015250505050565b6000601f19601f8301169050919050565b6000610f9382610f31565b610f9d8185610f3c565b9350610fad818560208601610f4d565b610fb681610f77565b840191505092915050565b610fca81610ece565b82525050565b60006080820190508181036000830152610fea8187610f88565b90508181036020830152610ffe8186610f88565b905061100d6040830185610fc1565b61101a6060830184610fc1565b95945050505050565b6000806040838503121561103a57611039610ec4565b5b600061104885828601610eef565b925050602061105985828601610eef565b9150509250929050565b600073ffffffffffffffffffffffffffffffffffffffff82169050919050565b600061108e82611063565b9050919050565b61109e81611083565b81146110a957600080fd5b50565b6000813590506110bb81611095565b92915050565b6000602082840312156110d7576110d6610ec4565b5b60006110e5848285016110ac565b91505092915050565b60006080820190506111036000830187610fc1565b81810360208301526111158186610f88565b905081810360408301526111298185610f88565b90506111386060830184610fc1565b95945050505050565b600060a0820190506111566000830188610fc1565b81810360208301526111688187610f88565b9050818103604083015261117c8186610f88565b905061118b6060830185610fc1565b6111986080830184610fc1565b9695505050505050565b600081519050919050565b600082825260208201905092915050565b6000819050602082019050919050565b6111d781610ece565b82525050565b600082825260208201905092915050565b60006111f982610f31565b61120381856111dd565b9350611213818560208601610f4d565b61121c81610f77565b840191505092915050565b600060a08301600083015161123f60008601826111ce565b506020830151848203602086015261125782826111ee565b9150506040830151848203604086015261127182826111ee565b915050606083015161128660608601826111ce565b50608083015161129960808601826111ce565b508091505092915050565b60006112b08383611227565b905092915050565b6000602082019050919050565b60006112d0826111a2565b6112da81856111ad565b9350836020820285016112ec856111be565b8060005b85811015611328578484038952815161130985826112a4565b9450611314836112b8565b925060208a019950506001810190506112f0565b50829750879550505050505092915050565b6000602082019050818103600083015261135481846112c5565b905092915050565b600061136782611063565b9050919050565b6113778161135c565b82525050565b6000602082019050611392600083018461136e565b92915050565b600080fd5b600080fd5b7f4e487b7100000000000000000000000000000000000000000000000000000000600052604160045260246000fd5b6113da82610f77565b810181811067ffffffffffffffff821117156113f9576113f86113a2565b5b80604052505050565b600061140c610eba565b905061141882826113d1565b919050565b600067ffffffffffffffff821115611438576114376113a2565b5b61144182610f77565b9050602081019050919050565b82818337600083830152505050565b600061147061146b8461141d565b611402565b90508281526020810184848401111561148c5761148b61139d565b5b61149784828561144e565b509392505050565b600082601f8301126114b4576114b3611398565b5b81356114c484826020860161145d565b91505092915050565b6000806000606084860312156114e6576114e5610ec4565b5b600084013567ffffffffffffffff81111561150457611503610ec9565b5b6115108682870161149f565b935050602084013567ffffffffffffffff81111561153157611530610ec9565b5b61153d8682870161149f565b925050604061154e86828701610eef565b9150509250925092565b6000806000806080858703121561157257611571610ec4565b5b600085013567ffffffffffffffff8111156115905761158f610ec9565b5b61159c8782880161149f565b945050602085013567ffffffffffffffff8111156115bd576115bc610ec9565b5b6115c98782880161149f565b93505060406115da87828801610eef565b92505060606115eb87828801610eef565b91505092959194509250565b7f4e487b7100000000000000000000000000000000000000000000000000000000600052603260045260246000fd5b7f4e487b7100000000000000000000000000000000000000000000000000000000600052602260045260246000fd5b6000600282049050600182168061166d57607f821691505b6020821081036116805761167f611626565b5b50919050565b7f4e487b7100000000000000000000000000000000000000000000000000000000600052601160045260246000fd5b60006116c082610ece565b91506116cb83610ece565b92508282026116d981610ece565b915082820484148315176116f0576116ef611686565b5b5092915050565b600061170282610ece565b915061170d83610ece565b925082820390508181111561172557611724611686565b5b92915050565b61173481611083565b82525050565b6000819050919050565b600061175f61175a61175584611063565b61173a565b611063565b9050919050565b600061177182611744565b9050919050565b600061178382611766565b9050919050565b61179381611778565b82525050565b60006060820190506117ae600083018661172b565b6117bb602083018561178a565b6117c86040830184610fc1565b949350505050565b60008190508160005260206000209050919050565b60006020601f8301049050919050565b600082821b905092915050565b6000600883026118327fffffffffffffffffffffffffffffffffffffffffffffffffffffffffffffffff826117f5565b61183c86836117f5565b95508019841693508086168417925050509392505050565b600061186f61186a61186584610ece565b61173a565b610ece565b9050919050565b6000819050919050565b61188983611854565b61189d61189582611876565b848454611802565b825550505050565b600090565b6118b26118a5565b6118bd818484611880565b505050565b5b818110156118e1576118d66000826118aa565b6001810190506118c3565b5050565b601f821115611926576118f7816117d0565b611900846117e5565b8101602085101561190f578190505b61192361191b856117e5565b8301826118c2565b50505b505050565b600082821c905092915050565b60006119496000198460080261192b565b1980831691505092915050565b60006119628383611938565b9150826002028217905092915050565b61197b82610f31565b67ffffffffffffffff811115611994576119936113a2565b5b61199e8254611655565b6119a98282856118e5565b600060209050601f8311600181146119dc57600084156119ca578287015190505b6119d48582611956565b865550611a3c565b601f1984166119ea866117d0565b60005b82811015611a12578489015182556001820191506020850194506020810190506119ed565b86831015611a2f5784890151611a2b601f891682611938565b8355505b6001600288020188555050505b505050505050565b6000611a4f82610ece565b91507fffffffffffffffffffffffffffffffffffffffffffffffffffffffffffffffff8203611a8157611a80611686565b5b60018201905091905056fea2646970667358221220f1dc4c5377cae9d3e499e4dbb2de3cafab60dc937a67114fcb08362fc67cf9a064736f6c63430008110033",
  "linkReferences": {},
  "deployedLinkReferences": {}
}