{
  "_format": "hh-sol-artifact-1",
  "contractName": "Carpool",
  "sourceName": "contracts/Carpool.sol",
  "abi": [
    {
      "anonymous": false,
      "inputs": [
        {
          "indexed": false,
          "internalType": "address",
          "name": "owner",
          "type": "address"
        },
        {
          "indexed": false,
          "internalType": "uint256",
          "name": "rideid",
          "type": "uint256"
        }
      ],
      "name": "AddRide",
      "type": "event"
    },
    {
      "anonymous": false,
      "inputs": [
        {
          "indexed": false,
          "internalType": "uint256",
          "name": "id",
          "type": "uint256"
        },
        {
          "indexed": false,
          "internalType": "string",
          "name": "Name",
          "type": "string"
        },
        {
          "indexed": false,
          "internalType": "string",
          "name": "phNo",
          "type": "string"
        },
        {
          "indexed": false,
          "internalType": "uint256",
          "name": "age",
          "type": "uint256"
        }
      ],
      "name": "Adduser",
      "type": "event"
    },
    {
      "anonymous": false,
      "inputs": [
        {
          "indexed": false,
          "internalType": "address",
          "name": "user",
          "type": "address"
        },
        {
          "indexed": false,
          "internalType": "address",
          "name": "owner",
          "type": "address"
        },
        {
          "indexed": false,
          "internalType": "uint256",
          "name": "rideid",
          "type": "uint256"
        }
      ],
      "name": "BookRide",
      "type": "event"
    },
    {
      "inputs": [
        {
          "internalType": "uint256",
          "name": "",
          "type": "uint256"
        }
      ],
      "name": "Ride",
      "outputs": [
        {
          "internalType": "uint256",
          "name": "rideID",
          "type": "uint256"
        },
        {
          "internalType": "string",
          "name": "Destination",
          "type": "string"
        },
        {
          "internalType": "string",
          "name": "source",
          "type": "string"
        },
        {
          "internalType": "uint256",
          "name": "price",
          "type": "uint256"
        },
        {
          "internalType": "uint256",
          "name": "seat",
          "type": "uint256"
        }
      ],
      "stateMutability": "view",
      "type": "function"
    },
    {
      "inputs": [
        {
          "internalType": "uint256",
          "name": "",
          "type": "uint256"
        }
      ],
      "name": "User",
      "outputs": [
        {
          "internalType": "uint256",
          "name": "id",
          "type": "uint256"
        },
        {
          "internalType": "string",
          "name": "Name",
          "type": "string"
        },
        {
          "internalType": "string",
          "name": "phNo",
          "type": "string"
        },
        {
          "internalType": "uint256",
          "name": "age",
          "type": "uint256"
        }
      ],
      "stateMutability": "view",
      "type": "function"
    },
    {
      "inputs": [
        {
          "internalType": "address",
          "name": "",
          "type": "address"
        }
      ],
      "name": "UserAddress",
      "outputs": [
        {
          "internalType": "uint256",
          "name": "id",
          "type": "uint256"
        },
        {
          "internalType": "string",
          "name": "Name",
          "type": "string"
        },
        {
          "internalType": "string",
          "name": "phNo",
          "type": "string"
        },
        {
          "internalType": "uint256",
          "name": "age",
          "type": "uint256"
        }
      ],
      "stateMutability": "view",
      "type": "function"
    },
    {
      "inputs": [
        {
          "internalType": "string",
          "name": "_Name",
          "type": "string"
        },
        {
          "internalType": "string",
          "name": "_phNo",
          "type": "string"
        },
        {
          "internalType": "uint256",
          "name": "_age",
          "type": "uint256"
        }
      ],
      "name": "addUser",
      "outputs": [],
      "stateMutability": "nonpayable",
      "type": "function"
    },
    {
      "inputs": [
        {
          "internalType": "uint256",
          "name": "rideId",
          "type": "uint256"
        },
        {
          "internalType": "uint256",
          "name": "no_of_seat",
          "type": "uint256"
        }
      ],
      "name": "bookRide",
      "outputs": [],
      "stateMutability": "payable",
      "type": "function"
    },
    {
      "inputs": [
        {
          "internalType": "string",
          "name": "_Destination",
          "type": "string"
        },
        {
          "internalType": "string",
          "name": "_source",
          "type": "string"
        },
        {
          "internalType": "uint256",
          "name": "price",
          "type": "uint256"
        },
        {
          "internalType": "uint256",
          "name": "seat",
          "type": "uint256"
        }
      ],
      "name": "createRide",
      "outputs": [],
      "stateMutability": "nonpayable",
      "type": "function"
    },
    {
      "inputs": [
        {
          "internalType": "uint256",
          "name": "",
          "type": "uint256"
        }
      ],
      "name": "rideowner",
      "outputs": [
        {
          "internalType": "address payable",
          "name": "",
          "type": "address"
        }
      ],
      "stateMutability": "view",
      "type": "function"
    }
  ],
  "bytecode": "0x608060405234801561001057600080fd5b5061149a806100206000396000f3fe6080604052600436106100705760003560e01c80638dd09d0b1161004e5780638dd09d0b14610112578063964f593714610152578063cfb8b8131461017b578063f5e6a7fb146101b857610070565b80632d452ed61461007557806334bd2c56146100915780633fbb468a146100d2575b600080fd5b61008f600480360381019061008a9190610b08565b6101e1565b005b34801561009d57600080fd5b506100b860048036038101906100b39190610b48565b610363565b6040516100c9959493929190610c14565b60405180910390f35b3480156100de57600080fd5b506100f960048036038101906100f49190610b48565b6104b9565b6040516101099493929190610c75565b60405180910390f35b34801561011e57600080fd5b5061013960048036038101906101349190610d26565b610609565b6040516101499493929190610c75565b60405180910390f35b34801561015e57600080fd5b5061017960048036038101906101749190610e88565b610749565b005b34801561018757600080fd5b506101a2600480360381019061019d9190610b48565b610951565b6040516101af9190610f34565b60405180910390f35b3480156101c457600080fd5b506101df60048036038101906101da9190610f4f565b610984565b005b34600183815481106101f6576101f5610fee565b5b90600052602060002090600502016003015482610213919061104c565b1461021d57600080fd5b6002600083815260200190815260200160002060009054906101000a900473ffffffffffffffffffffffffffffffffffffffff1673ffffffffffffffffffffffffffffffffffffffff166108fc349081150290604051600060405180830381858888f19350505050158015610296573d6000803e3d6000fd5b5080600183815481106102ac576102ab610fee565b5b9060005260206000209060050201600401546102c8919061108e565b600183815481106102dc576102db610fee565b5b9060005260206000209060050201600401819055507f32f9c2f72376e20c01523fc02db0214ad297b9d1672449fb43e8b1c79ab1fa21336002600085815260200190815260200160002060009054906101000a900473ffffffffffffffffffffffffffffffffffffffff168460405161035793929190611130565b60405180910390a15050565b6001818154811061037357600080fd5b906000526020600020906005020160009150905080600001549080600101805461039c90611196565b80601f01602080910402602001604051908101604052809291908181526020018280546103c890611196565b80156104155780601f106103ea57610100808354040283529160200191610415565b820191906000526020600020905b8154815290600101906020018083116103f857829003601f168201915b50505050509080600201805461042a90611196565b80601f016020809104026020016040519081016040528092919081815260200182805461045690611196565b80156104a35780601f10610478576101008083540402835291602001916104a3565b820191906000526020600020905b81548152906001019060200180831161048657829003601f168201915b5050505050908060030154908060040154905085565b600081815481106104c957600080fd5b90600052602060002090600402016000915090508060000154908060010180546104f290611196565b80601f016020809104026020016040519081016040528092919081815260200182805461051e90611196565b801561056b5780601f106105405761010080835404028352916020019161056b565b820191906000526020600020905b81548152906001019060200180831161054e57829003601f168201915b50505050509080600201805461058090611196565b80601f01602080910402602001604051908101604052809291908181526020018280546105ac90611196565b80156105f95780601f106105ce576101008083540402835291602001916105f9565b820191906000526020600020905b8154815290600101906020018083116105dc57829003601f168201915b5050505050908060030154905084565b600360205280600052604060002060009150905080600001549080600101805461063290611196565b80601f016020809104026020016040519081016040528092919081815260200182805461065e90611196565b80156106ab5780601f10610680576101008083540402835291602001916106ab565b820191906000526020600020905b81548152906001019060200180831161068e57829003601f168201915b5050505050908060020180546106c090611196565b80601f01602080910402602001604051908101604052809291908181526020018280546106ec90611196565b80156107395780601f1061070e57610100808354040283529160200191610739565b820191906000526020600020905b81548152906001019060200180831161071c57829003601f168201915b5050505050908060030154905084565b600080805490509050600060405180608001604052808381526020018681526020018581526020018481525090806001815401808255809150506001900390600052602060002090600402016000909190919091506000820151816000015560208201518160010190816107bd9190611369565b5060408201518160020190816107d39190611369565b5060608201518160030155505080600360003373ffffffffffffffffffffffffffffffffffffffff1673ffffffffffffffffffffffffffffffffffffffff1681526020019081526020016000206000018190555083600360003373ffffffffffffffffffffffffffffffffffffffff1673ffffffffffffffffffffffffffffffffffffffff16815260200190815260200160002060010190816108769190611369565b5082600360003373ffffffffffffffffffffffffffffffffffffffff1673ffffffffffffffffffffffffffffffffffffffff16815260200190815260200160002060020190816108c69190611369565b5081600360003373ffffffffffffffffffffffffffffffffffffffff1673ffffffffffffffffffffffffffffffffffffffff168152602001908152602001600020600301819055507f2979a1382e3167a427a6be881ac791e1e12b6b6bf311d119b28c4c9eabbbd743818585856040516109439493929190610c75565b60405180910390a150505050565b60026020528060005260406000206000915054906101000a900473ffffffffffffffffffffffffffffffffffffffff1681565b6000600180549050905060016040518060a001604052808381526020018781526020018681526020018581526020018481525090806001815401808255809150506001900390600052602060002090600502016000909190919091506000820151816000015560208201518160010190816109ff9190611369565b506040820151816002019081610a159190611369565b5060608201518160030155608082015181600401555050336002600083815260200190815260200160002060006101000a81548173ffffffffffffffffffffffffffffffffffffffff021916908373ffffffffffffffffffffffffffffffffffffffff1602179055507fa4e06b7f668ce73f8bbe3b221c126c312230c1fe69514f581f6df94181feab563382604051610aaf92919061143b565b60405180910390a15050505050565b6000604051905090565b600080fd5b600080fd5b6000819050919050565b610ae581610ad2565b8114610af057600080fd5b50565b600081359050610b0281610adc565b92915050565b60008060408385031215610b1f57610b1e610ac8565b5b6000610b2d85828601610af3565b9250506020610b3e85828601610af3565b9150509250929050565b600060208284031215610b5e57610b5d610ac8565b5b6000610b6c84828501610af3565b91505092915050565b610b7e81610ad2565b82525050565b600081519050919050565b600082825260208201905092915050565b60005b83811015610bbe578082015181840152602081019050610ba3565b60008484015250505050565b6000601f19601f8301169050919050565b6000610be682610b84565b610bf08185610b8f565b9350610c00818560208601610ba0565b610c0981610bca565b840191505092915050565b600060a082019050610c296000830188610b75565b8181036020830152610c3b8187610bdb565b90508181036040830152610c4f8186610bdb565b9050610c5e6060830185610b75565b610c6b6080830184610b75565b9695505050505050565b6000608082019050610c8a6000830187610b75565b8181036020830152610c9c8186610bdb565b90508181036040830152610cb08185610bdb565b9050610cbf6060830184610b75565b95945050505050565b600073ffffffffffffffffffffffffffffffffffffffff82169050919050565b6000610cf382610cc8565b9050919050565b610d0381610ce8565b8114610d0e57600080fd5b50565b600081359050610d2081610cfa565b92915050565b600060208284031215610d3c57610d3b610ac8565b5b6000610d4a84828501610d11565b91505092915050565b600080fd5b600080fd5b7f4e487b7100000000000000000000000000000000000000000000000000000000600052604160045260246000fd5b610d9582610bca565b810181811067ffffffffffffffff82111715610db457610db3610d5d565b5b80604052505050565b6000610dc7610abe565b9050610dd38282610d8c565b919050565b600067ffffffffffffffff821115610df357610df2610d5d565b5b610dfc82610bca565b9050602081019050919050565b82818337600083830152505050565b6000610e2b610e2684610dd8565b610dbd565b905082815260208101848484011115610e4757610e46610d58565b5b610e52848285610e09565b509392505050565b600082601f830112610e6f57610e6e610d53565b5b8135610e7f848260208601610e18565b91505092915050565b600080600060608486031215610ea157610ea0610ac8565b5b600084013567ffffffffffffffff811115610ebf57610ebe610acd565b5b610ecb86828701610e5a565b935050602084013567ffffffffffffffff811115610eec57610eeb610acd565b5b610ef886828701610e5a565b9250506040610f0986828701610af3565b9150509250925092565b6000610f1e82610cc8565b9050919050565b610f2e81610f13565b82525050565b6000602082019050610f496000830184610f25565b92915050565b60008060008060808587031215610f6957610f68610ac8565b5b600085013567ffffffffffffffff811115610f8757610f86610acd565b5b610f9387828801610e5a565b945050602085013567ffffffffffffffff811115610fb457610fb3610acd565b5b610fc087828801610e5a565b9350506040610fd187828801610af3565b9250506060610fe287828801610af3565b91505092959194509250565b7f4e487b7100000000000000000000000000000000000000000000000000000000600052603260045260246000fd5b7f4e487b7100000000000000000000000000000000000000000000000000000000600052601160045260246000fd5b600061105782610ad2565b915061106283610ad2565b925082820261107081610ad2565b915082820484148315176110875761108661101d565b5b5092915050565b600061109982610ad2565b91506110a483610ad2565b92508282039050818111156110bc576110bb61101d565b5b92915050565b6110cb81610ce8565b82525050565b6000819050919050565b60006110f66110f16110ec84610cc8565b6110d1565b610cc8565b9050919050565b6000611108826110db565b9050919050565b600061111a826110fd565b9050919050565b61112a8161110f565b82525050565b600060608201905061114560008301866110c2565b6111526020830185611121565b61115f6040830184610b75565b949350505050565b7f4e487b7100000000000000000000000000000000000000000000000000000000600052602260045260246000fd5b600060028204905060018216806111ae57607f821691505b6020821081036111c1576111c0611167565b5b50919050565b60008190508160005260206000209050919050565b60006020601f8301049050919050565b600082821b905092915050565b6000600883026112297fffffffffffffffffffffffffffffffffffffffffffffffffffffffffffffffff826111ec565b61123386836111ec565b95508019841693508086168417925050509392505050565b600061126661126161125c84610ad2565b6110d1565b610ad2565b9050919050565b6000819050919050565b6112808361124b565b61129461128c8261126d565b8484546111f9565b825550505050565b600090565b6112a961129c565b6112b4818484611277565b505050565b5b818110156112d8576112cd6000826112a1565b6001810190506112ba565b5050565b601f82111561131d576112ee816111c7565b6112f7846111dc565b81016020851015611306578190505b61131a611312856111dc565b8301826112b9565b50505b505050565b600082821c905092915050565b600061134060001984600802611322565b1980831691505092915050565b6000611359838361132f565b9150826002028217905092915050565b61137282610b84565b67ffffffffffffffff81111561138b5761138a610d5d565b5b6113958254611196565b6113a08282856112dc565b600060209050601f8311600181146113d357600084156113c1578287015190505b6113cb858261134d565b865550611433565b601f1984166113e1866111c7565b60005b82811015611409578489015182556001820191506020850194506020810190506113e4565b868310156114265784890151611422601f89168261132f565b8355505b6001600288020188555050505b505050505050565b600060408201905061145060008301856110c2565b61145d6020830184610b75565b939250505056fea264697066735822122025c6496410b5aa2ac765e065b445b85c09be4c87a90acee45e5a5de816992e7264736f6c63430008110033",
  "linkReferences": {},
  "deployedLinkReferences": {}
}